{
  "contractName": "Buy",
  "abi": [
    {
      "constant": true,
      "inputs": [],
      "name": "name",
      "outputs": [
        {
          "name": "",
          "type": "string"
        }
      ],
      "payable": false,
      "stateMutability": "view",
      "type": "function",
      "signature": "0x06fdde03"
    },
    {
      "constant": true,
      "inputs": [
        {
          "name": "",
          "type": "address"
        }
      ],
      "name": "UserReg",
      "outputs": [
        {
          "name": "vehicleNum",
          "type": "string"
        },
        {
          "name": "userBalance",
          "type": "uint256"
        },
        {
          "name": "tollReset",
          "type": "uint256"
        },
        {
          "name": "userExists",
          "type": "bool"
        }
      ],
      "payable": false,
      "stateMutability": "view",
      "type": "function",
      "signature": "0x14b225dd"
    },
    {
      "constant": true,
      "inputs": [],
      "name": "totalSupply",
      "outputs": [
        {
          "name": "",
          "type": "uint256"
        }
      ],
      "payable": false,
      "stateMutability": "view",
      "type": "function",
      "signature": "0x18160ddd"
    },
    {
      "constant": true,
      "inputs": [],
      "name": "decimals",
      "outputs": [
        {
          "name": "",
          "type": "uint8"
        }
      ],
      "payable": false,
      "stateMutability": "view",
      "type": "function",
      "signature": "0x313ce567"
    },
    {
      "constant": true,
      "inputs": [],
      "name": "contractorExists",
      "outputs": [
        {
          "name": "",
          "type": "bool"
        }
      ],
      "payable": false,
      "stateMutability": "view",
      "type": "function",
      "signature": "0x6b3eabd4"
    },
    {
      "constant": true,
      "inputs": [
        {
          "name": "_owner",
          "type": "address"
        }
      ],
      "name": "balanceOf",
      "outputs": [
        {
          "name": "balance",
          "type": "uint256"
        }
      ],
      "payable": false,
      "stateMutability": "view",
      "type": "function",
      "signature": "0x70a08231"
    },
    {
      "constant": true,
      "inputs": [],
      "name": "contractorGlobal",
      "outputs": [
        {
          "name": "",
          "type": "address"
        }
      ],
      "payable": false,
      "stateMutability": "view",
      "type": "function",
      "signature": "0x75fb4048"
    },
    {
      "constant": true,
      "inputs": [],
      "name": "owner",
      "outputs": [
        {
          "name": "",
          "type": "address"
        }
      ],
      "payable": false,
      "stateMutability": "view",
      "type": "function",
      "signature": "0x8da5cb5b"
    },
    {
      "constant": true,
      "inputs": [],
      "name": "symbol",
      "outputs": [
        {
          "name": "",
          "type": "string"
        }
      ],
      "payable": false,
      "stateMutability": "view",
      "type": "function",
      "signature": "0x95d89b41"
    },
    {
      "constant": false,
      "inputs": [
        {
          "name": "_to",
          "type": "address"
        },
        {
          "name": "_value",
          "type": "uint256"
        }
      ],
      "name": "transfer",
      "outputs": [
        {
          "name": "",
          "type": "bool"
        }
      ],
      "payable": false,
      "stateMutability": "nonpayable",
      "type": "function",
      "signature": "0xa9059cbb"
    },
    {
      "constant": true,
      "inputs": [],
      "name": "withdrawAllowance",
      "outputs": [
        {
          "name": "",
          "type": "uint256"
        }
      ],
      "payable": false,
      "stateMutability": "view",
      "type": "function",
      "signature": "0xc0ee01bc"
    },
    {
      "anonymous": false,
      "inputs": [
        {
          "indexed": true,
          "name": "from",
          "type": "address"
        },
        {
          "indexed": true,
          "name": "to",
          "type": "address"
        },
        {
          "indexed": false,
          "name": "value",
          "type": "uint256"
        }
      ],
      "name": "Transfer",
      "type": "event",
      "signature": "0xddf252ad1be2c89b69c2b068fc378daa952ba7f163c4a11628f55a4df523b3ef"
    },
    {
      "constant": false,
      "inputs": [
        {
          "name": "_contractor",
          "type": "address"
        }
      ],
      "name": "registerContractor",
      "outputs": [
        {
          "name": "",
          "type": "bool"
        }
      ],
      "payable": false,
      "stateMutability": "nonpayable",
      "type": "function",
      "signature": "0x2561a429"
    },
    {
      "constant": false,
      "inputs": [
        {
          "name": "_user",
          "type": "address"
        },
        {
          "name": "_vehicleNum",
          "type": "string"
        }
      ],
      "name": "registerUser",
      "outputs": [
        {
          "name": "",
          "type": "bool"
        }
      ],
      "payable": false,
      "stateMutability": "nonpayable",
      "type": "function",
      "signature": "0x0ea126f9"
    },
    {
      "constant": false,
      "inputs": [
        {
          "name": "_user",
          "type": "address"
        }
      ],
      "name": "payToll",
      "outputs": [
        {
          "name": "",
          "type": "bool"
        }
      ],
      "payable": false,
      "stateMutability": "nonpayable",
      "type": "function",
      "signature": "0x5a1609c7"
    },
    {
      "constant": false,
      "inputs": [
        {
          "name": "_value",
          "type": "uint256"
        }
      ],
      "name": "withdrawToken",
      "outputs": [
        {
          "name": "",
          "type": "bool"
        }
      ],
      "payable": false,
      "stateMutability": "nonpayable",
      "type": "function",
      "signature": "0x50baa622"
    },
    {
      "constant": true,
      "inputs": [
        {
          "name": "_user",
          "type": "address"
        }
      ],
      "name": "viewUsers",
      "outputs": [
        {
          "name": "",
          "type": "address"
        },
        {
          "name": "",
          "type": "string"
        },
        {
          "name": "",
          "type": "uint256"
        }
      ],
      "payable": false,
      "stateMutability": "view",
      "type": "function",
      "signature": "0xac342c64"
    },
    {
      "constant": false,
      "inputs": [
        {
          "name": "_user",
          "type": "address"
        },
        {
          "name": "_tokens",
          "type": "uint256"
        }
      ],
      "name": "buyTokens",
      "outputs": [],
      "payable": true,
      "stateMutability": "payable",
      "type": "function",
      "signature": "0x0752881a"
    },
    {
      "constant": true,
      "inputs": [
        {
          "name": "_user",
          "type": "address"
        }
      ],
      "name": "viewHistory",
      "outputs": [
        {
          "name": "",
          "type": "uint256[]"
        }
      ],
      "payable": false,
      "stateMutability": "view",
      "type": "function",
      "signature": "0x189f158d"
    },
    {
      "constant": true,
      "inputs": [],
      "name": "existContractor",
      "outputs": [
        {
          "name": "",
          "type": "bool"
        }
      ],
      "payable": false,
      "stateMutability": "view",
      "type": "function",
      "signature": "0x5ab8fa21"
    }
  ],
  "bytecode": "0x608060405260506008556000600960006101000a81548160ff021916908315150217905550336000806101000a81548173ffffffffffffffffffffffffffffffffffffffff021916908373ffffffffffffffffffffffffffffffffffffffff1602179055506032600181905550426002819055506000600360ff16600a0a6032029050620000a781600554620001bf640100000000026200338a179091906401000000009004565b6005819055506200010f81600360003373ffffffffffffffffffffffffffffffffffffffff1673ffffffffffffffffffffffffffffffffffffffff16815260200190815260200160002054620001bf640100000000026200338a179091906401000000009004565b600360003373ffffffffffffffffffffffffffffffffffffffff1673ffffffffffffffffffffffffffffffffffffffff168152602001908152602001600020819055503373ffffffffffffffffffffffffffffffffffffffff16600073ffffffffffffffffffffffffffffffffffffffff167fddf252ad1be2c89b69c2b068fc378daa952ba7f163c4a11628f55a4df523b3ef836040518082815260200191505060405180910390a350620001de565b6000808284019050838110151515620001d457fe5b8091505092915050565b6135e880620001ee6000396000f3fe608060405260043610610107576000357c0100000000000000000000000000000000000000000000000000000000900463ffffffff16806306fdde031461010c5780630752881a1461019c5780630ea126f9146101ea57806314b225dd146102ea57806318160ddd146103cd578063189f158d146103f85780632561a4291461049e578063313ce5671461050757806350baa622146105385780635a1609c71461058b5780635ab8fa21146105f45780636b3eabd41461062357806370a082311461065257806375fb4048146106b75780638da5cb5b1461070e57806395d89b4114610765578063a9059cbb146107f5578063ac342c6414610868578063c0ee01bc1461096c575b600080fd5b34801561011857600080fd5b50610121610997565b6040518080602001828103825283818151815260200191508051906020019080838360005b83811015610161578082015181840152602081019050610146565b50505050905090810190601f16801561018e5780820380516001836020036101000a031916815260200191505b509250505060405180910390f35b6101e8600480360360408110156101b257600080fd5b81019080803573ffffffffffffffffffffffffffffffffffffffff169060200190929190803590602001909291905050506109d0565b005b3480156101f657600080fd5b506102d06004803603604081101561020d57600080fd5b81019080803573ffffffffffffffffffffffffffffffffffffffff1690602001909291908035906020019064010000000081111561024a57600080fd5b82018360208201111561025c57600080fd5b8035906020019184600183028401116401000000008311171561027e57600080fd5b91908080601f016020809104026020016040519081016040528093929190818152602001838380828437600081840152601f19601f82011690508083019250505050505050919291929050505061109e565b604051808215151515815260200191505060405180910390f35b3480156102f657600080fd5b506103396004803603602081101561030d57600080fd5b81019080803573ffffffffffffffffffffffffffffffffffffffff1690602001909291905050506115ef565b604051808060200185815260200184815260200183151515158152602001828103825286818151815260200191508051906020019080838360005b8381101561038f578082015181840152602081019050610374565b50505050905090810190601f1680156103bc5780820380516001836020036101000a031916815260200191505b509550505050505060405180910390f35b3480156103d957600080fd5b506103e26116c4565b6040518082815260200191505060405180910390f35b34801561040457600080fd5b506104476004803603602081101561041b57600080fd5b81019080803573ffffffffffffffffffffffffffffffffffffffff1690602001909291905050506116ce565b6040518080602001828103825283818151815260200191508051906020019060200280838360005b8381101561048a57808201518184015260208101905061046f565b505050509050019250505060405180910390f35b3480156104aa57600080fd5b506104ed600480360360208110156104c157600080fd5b81019080803573ffffffffffffffffffffffffffffffffffffffff16906020019092919050505061186a565b604051808215151515815260200191505060405180910390f35b34801561051357600080fd5b5061051c611b31565b604051808260ff1660ff16815260200191505060405180910390f35b34801561054457600080fd5b506105716004803603602081101561055b57600080fd5b8101908080359060200190929190505050611b36565b604051808215151515815260200191505060405180910390f35b34801561059757600080fd5b506105da600480360360208110156105ae57600080fd5b81019080803573ffffffffffffffffffffffffffffffffffffffff169060200190929190505050611fa1565b604051808215151515815260200191505060405180910390f35b34801561060057600080fd5b5061060961283e565b604051808215151515815260200191505060405180910390f35b34801561062f57600080fd5b50610638612855565b604051808215151515815260200191505060405180910390f35b34801561065e57600080fd5b506106a16004803603602081101561067557600080fd5b81019080803573ffffffffffffffffffffffffffffffffffffffff169060200190929190505050612868565b6040518082815260200191505060405180910390f35b3480156106c357600080fd5b506106cc6128b1565b604051808273ffffffffffffffffffffffffffffffffffffffff1673ffffffffffffffffffffffffffffffffffffffff16815260200191505060405180910390f35b34801561071a57600080fd5b506107236128d7565b604051808273ffffffffffffffffffffffffffffffffffffffff1673ffffffffffffffffffffffffffffffffffffffff16815260200191505060405180910390f35b34801561077157600080fd5b5061077a6128fc565b6040518080602001828103825283818151815260200191508051906020019080838360005b838110156107ba57808201518184015260208101905061079f565b50505050905090810190601f1680156107e75780820380516001836020036101000a031916815260200191505b509250505060405180910390f35b34801561080157600080fd5b5061084e6004803603604081101561081857600080fd5b81019080803573ffffffffffffffffffffffffffffffffffffffff16906020019092919080359060200190929190505050612935565b604051808215151515815260200191505060405180910390f35b34801561087457600080fd5b506108b76004803603602081101561088b57600080fd5b81019080803573ffffffffffffffffffffffffffffffffffffffff16906020019092919050505061307f565b604051808473ffffffffffffffffffffffffffffffffffffffff1673ffffffffffffffffffffffffffffffffffffffff16815260200180602001838152602001828103825284818151815260200191508051906020019080838360005b8381101561092f578082015181840152602081019050610914565b50505050905090810190601f16801561095c5780820380516001836020036101000a031916815260200191505b5094505050505060405180910390f35b34801561097857600080fd5b50610981613349565b6040518082815260200191505060405180910390f35b6040805190810160405280600881526020017f546f6c6c436f696e00000000000000000000000000000000000000000000000081525081565b6000809054906101000a900473ffffffffffffffffffffffffffffffffffffffff1673ffffffffffffffffffffffffffffffffffffffff163373ffffffffffffffffffffffffffffffffffffffff1614151515610a95576040517f08c379a000000000000000000000000000000000000000000000000000000000815260040180806020018281038252601c8152602001807f4f776e65722063616e6e6f742063616c6c2042757920546f6b656e730000000081525060200191505060405180910390fd5b6000809054906101000a900473ffffffffffffffffffffffffffffffffffffffff1673ffffffffffffffffffffffffffffffffffffffff168273ffffffffffffffffffffffffffffffffffffffff1614151515610b5a576040517f08c379a000000000000000000000000000000000000000000000000000000000815260040180806020018281038252601d8152602001807f4f776e65722063616e6e6f7420707572636861736520546f6b656e732100000081525060200191505060405180910390fd5b600460009054906101000a900473ffffffffffffffffffffffffffffffffffffffff1673ffffffffffffffffffffffffffffffffffffffff163373ffffffffffffffffffffffffffffffffffffffff1614151515610c46576040517f08c379a00000000000000000000000000000000000000000000000000000000081526004018080602001828103825260218152602001807f436f6e74726163746f722063616e6e6f742063616c6c2042757920546f6b656e81526020017f730000000000000000000000000000000000000000000000000000000000000081525060400191505060405180910390fd5b600460009054906101000a900473ffffffffffffffffffffffffffffffffffffffff1673ffffffffffffffffffffffffffffffffffffffff168273ffffffffffffffffffffffffffffffffffffffff1614151515610d32576040517f08c379a00000000000000000000000000000000000000000000000000000000081526004018080602001828103825260228152602001807f436f6e74726163746f722063616e6e6f7420707572636861736520546f6b656e81526020017f732100000000000000000000000000000000000000000000000000000000000081525060400191505060405180910390fd5b60011515600760008473ffffffffffffffffffffffffffffffffffffffff1673ffffffffffffffffffffffffffffffffffffffff16815260200190815260200160002060030160009054906101000a900460ff161515141515610dfd576040517f08c379a00000000000000000000000000000000000000000000000000000000081526004018080602001828103825260138152602001807f5573657220646f65736e2774206578697374210000000000000000000000000081525060200191505060405180910390fd5b610e17662386f26fc100008261334f90919063ffffffff16565b8273ffffffffffffffffffffffffffffffffffffffff1631111515610eca576040517f08c379a000000000000000000000000000000000000000000000000000000000815260040180806020018281038252602b8152602001807f5573657220646f65736e277420686176652073756666696369656e742045746881526020017f65722062616c616e63652100000000000000000000000000000000000000000081525060400191505060405180910390fd5b80600360008060009054906101000a900473ffffffffffffffffffffffffffffffffffffffff1673ffffffffffffffffffffffffffffffffffffffff1673ffffffffffffffffffffffffffffffffffffffff16815260200190815260200160002054111515610f7357610f726000809054906101000a900473ffffffffffffffffffffffffffffffffffffffff16610f6d6127108461338a90919063ffffffff16565b6133a8565b5b6000809054906101000a900473ffffffffffffffffffffffffffffffffffffffff1673ffffffffffffffffffffffffffffffffffffffff166108fc610fc8662386f26fc100008461334f90919063ffffffff16565b9081150290604051600060405180830381858888f19350505050158015610ff3573d6000803e3d6000fd5b50610ffe8282612935565b5061105481600760008573ffffffffffffffffffffffffffffffffffffffff1673ffffffffffffffffffffffffffffffffffffffff1681526020019081526020016000206001015461338a90919063ffffffff16565b600760008473ffffffffffffffffffffffffffffffffffffffff1673ffffffffffffffffffffffffffffffffffffffff168152602001908152602001600020600101819055505050565b60008060009054906101000a900473ffffffffffffffffffffffffffffffffffffffff1673ffffffffffffffffffffffffffffffffffffffff163373ffffffffffffffffffffffffffffffffffffffff1614151561118a576040517f08c379a00000000000000000000000000000000000000000000000000000000081526004018080602001828103825260248152602001807f4f6e6c79206f776e65722063616e2061636365737320746869732066756e637481526020017f696f6e210000000000000000000000000000000000000000000000000000000081525060400191505060405180910390fd5b6000809054906101000a900473ffffffffffffffffffffffffffffffffffffffff1673ffffffffffffffffffffffffffffffffffffffff168373ffffffffffffffffffffffffffffffffffffffff1614151515611275576040517f08c379a00000000000000000000000000000000000000000000000000000000081526004018080602001828103825260238152602001807f4f776e65722063616e6e6f74206265207265676973746572656420617320557381526020017f657221000000000000000000000000000000000000000000000000000000000081525060400191505060405180910390fd5b600073ffffffffffffffffffffffffffffffffffffffff16600460009054906101000a900473ffffffffffffffffffffffffffffffffffffffff1673ffffffffffffffffffffffffffffffffffffffff1614151515611362576040517f08c379a00000000000000000000000000000000000000000000000000000000081526004018080602001828103825260268152602001807f436f6e74726163746f7220686173206e6f74206265656e20726567697374657281526020017f656420796574000000000000000000000000000000000000000000000000000081525060400191505060405180910390fd5b600460009054906101000a900473ffffffffffffffffffffffffffffffffffffffff1673ffffffffffffffffffffffffffffffffffffffff168373ffffffffffffffffffffffffffffffffffffffff161415151561144e576040517f08c379a00000000000000000000000000000000000000000000000000000000081526004018080602001828103825260288152602001807f436f6e74726163746f722063616e6e6f7420626520726567697374657265642081526020017f617320557365722100000000000000000000000000000000000000000000000081525060400191505060405180910390fd5b60001515600760008573ffffffffffffffffffffffffffffffffffffffff1673ffffffffffffffffffffffffffffffffffffffff16815260200190815260200160002060030160009054906101000a900460ff161515141515611519576040517f08c379a00000000000000000000000000000000000000000000000000000000081526004018080602001828103825260148152602001807f5573657220616c7265616479206578697374732100000000000000000000000081525060200191505060405180910390fd5b60806040519081016040528083815260200160008152602001611546603c426134fe90919063ffffffff16565b815260200160011515815250600760008573ffffffffffffffffffffffffffffffffffffffff1673ffffffffffffffffffffffffffffffffffffffff16815260200190815260200160002060008201518160000190805190602001906115ad929190613517565b50602082015181600101556040820151816002015560608201518160030160006101000a81548160ff0219169083151502179055509050506001905092915050565b6007602052806000526040600020600091509050806000018054600181600116156101000203166002900480601f01602080910402602001604051908101604052809291908181526020018280546001816001161561010002031660029004801561169b5780601f106116705761010080835404028352916020019161169b565b820191906000526020600020905b81548152906001019060200180831161167e57829003601f168201915b5050505050908060010154908060020154908060030160009054906101000a900460ff16905084565b6000600554905090565b60606000809054906101000a900473ffffffffffffffffffffffffffffffffffffffff1673ffffffffffffffffffffffffffffffffffffffff168273ffffffffffffffffffffffffffffffffffffffff1614806117785750600460009054906101000a900473ffffffffffffffffffffffffffffffffffffffff1673ffffffffffffffffffffffffffffffffffffffff168273ffffffffffffffffffffffffffffffffffffffff16145b1515611812576040517f08c379a000000000000000000000000000000000000000000000000000000000815260040180806020018281038252602a8152602001807f4f6e6c79204f776e6572206f7220436f6e74726163746f722063616e2076696581526020017f7720686973746f7279210000000000000000000000000000000000000000000081525060400191505060405180910390fd5b600680548060200260200160405190810160405280929190818152602001828054801561185e57602002820191906000526020600020905b81548152602001906001019080831161184a575b50505050509050919050565b60008060009054906101000a900473ffffffffffffffffffffffffffffffffffffffff1673ffffffffffffffffffffffffffffffffffffffff163373ffffffffffffffffffffffffffffffffffffffff16141515611956576040517f08c379a00000000000000000000000000000000000000000000000000000000081526004018080602001828103825260248152602001807f4f6e6c79206f776e65722063616e2061636365737320746869732066756e637481526020017f696f6e210000000000000000000000000000000000000000000000000000000081525060400191505060405180910390fd5b8173ffffffffffffffffffffffffffffffffffffffff166000809054906101000a900473ffffffffffffffffffffffffffffffffffffffff1673ffffffffffffffffffffffffffffffffffffffff1614151515611a41576040517f08c379a00000000000000000000000000000000000000000000000000000000081526004018080602001828103825260248152602001807f4f776e65722063616e6e6f7420726567697374657220617320436f6e7472616381526020017f746f72210000000000000000000000000000000000000000000000000000000081525060400191505060405180910390fd5b60001515600960009054906101000a900460ff161515141515611acc576040517f08c379a000000000000000000000000000000000000000000000000000000000815260040180806020018281038252601e8152602001807f436f6e74726163746f7220616c7265616479207265676973746572656421000081525060200191505060405180910390fd5b81600460006101000a81548173ffffffffffffffffffffffffffffffffffffffff021916908373ffffffffffffffffffffffffffffffffffffffff1602179055506001600960006101000a81548160ff02191690831515021790555060019050919050565b600381565b60008073ffffffffffffffffffffffffffffffffffffffff16600460009054906101000a900473ffffffffffffffffffffffffffffffffffffffff1673ffffffffffffffffffffffffffffffffffffffff1614151515611bfe576040517f08c379a000000000000000000000000000000000000000000000000000000000815260040180806020018281038252601e8152602001807f436f6e74726163746f72206e6f7420726567697374657265642079657421000081525060200191505060405180910390fd5b6000809054906101000a900473ffffffffffffffffffffffffffffffffffffffff1673ffffffffffffffffffffffffffffffffffffffff163373ffffffffffffffffffffffffffffffffffffffff1614151515611ce9576040517f08c379a00000000000000000000000000000000000000000000000000000000081526004018080602001828103825260228152602001807f4f776e65722063616e6e6f742061636365737320746869732066756e6374696f81526020017f6e2100000000000000000000000000000000000000000000000000000000000081525060400191505060405180910390fd5b600460009054906101000a900473ffffffffffffffffffffffffffffffffffffffff1673ffffffffffffffffffffffffffffffffffffffff163373ffffffffffffffffffffffffffffffffffffffff16141515611dd4576040517f08c379a00000000000000000000000000000000000000000000000000000000081526004018080602001828103825260298152602001807f4f6e6c7920436f6e74726163746f722063616e2061636365737320746869732081526020017f66756e6374696f6e21000000000000000000000000000000000000000000000081525060400191505060405180910390fd5b60085482111580611dfb575042611df861016860025461338a90919063ffffffff16565b11155b1515611e6f576040517f08c379a000000000000000000000000000000000000000000000000000000000815260040180806020018281038252601e8152602001807f5769746864726177616c206c696d697420697320383020746f6b656e7321000081525060200191505060405180910390fd5b81600360003073ffffffffffffffffffffffffffffffffffffffff1673ffffffffffffffffffffffffffffffffffffffff1681526020019081526020016000205410151515611f4c576040517f08c379a000000000000000000000000000000000000000000000000000000000815260040180806020018281038252602f8152602001807f436f6e74726163742062616c616e6365206973206c657373207468616e20726581526020017f7175657374656420616d6f756e7421000000000000000000000000000000000081525060400191505060405180910390fd5b33600460006101000a81548173ffffffffffffffffffffffffffffffffffffffff021916908373ffffffffffffffffffffffffffffffffffffffff160217905550611f973383612935565b5060019050919050565b600042611fbb61016860025461338a90919063ffffffff16565b10151515612057576040517f08c379a00000000000000000000000000000000000000000000000000000000081526004018080602001828103825260348152602001807f436f6e74726163742068617320656e6465642c20746f6c6c20636f6c6c65637481526020017f696f6e206973206e6f7420706f737369626c652100000000000000000000000081525060400191505060405180910390fd5b600073ffffffffffffffffffffffffffffffffffffffff16600460009054906101000a900473ffffffffffffffffffffffffffffffffffffffff1673ffffffffffffffffffffffffffffffffffffffff161415151561211e576040517f08c379a000000000000000000000000000000000000000000000000000000000815260040180806020018281038252601e8152602001807f436f6e74726163746f72206e6f7420726567697374657265642079657421000081525060200191505060405180910390fd5b8173ffffffffffffffffffffffffffffffffffffffff163373ffffffffffffffffffffffffffffffffffffffff161415156121c1576040517f08c379a00000000000000000000000000000000000000000000000000000000081526004018080602001828103825260188152602001807f4f6e6c792075736572732063616e2070617920746f6c6c21000000000000000081525060200191505060405180910390fd5b6000809054906101000a900473ffffffffffffffffffffffffffffffffffffffff1673ffffffffffffffffffffffffffffffffffffffff163373ffffffffffffffffffffffffffffffffffffffff1614151515612286576040517f08c379a000000000000000000000000000000000000000000000000000000000815260040180806020018281038252601a8152602001807f4f776e65722063616e6e6f742063616c6c2050617920746f6c6c00000000000081525060200191505060405180910390fd5b6000809054906101000a900473ffffffffffffffffffffffffffffffffffffffff1673ffffffffffffffffffffffffffffffffffffffff168273ffffffffffffffffffffffffffffffffffffffff161415151561234b576040517f08c379a00000000000000000000000000000000000000000000000000000000081526004018080602001828103825260168152602001807f4f776e65722063616e6e6f742070617920746f6c6c210000000000000000000081525060200191505060405180910390fd5b600460009054906101000a900473ffffffffffffffffffffffffffffffffffffffff1673ffffffffffffffffffffffffffffffffffffffff163373ffffffffffffffffffffffffffffffffffffffff1614151515612411576040517f08c379a000000000000000000000000000000000000000000000000000000000815260040180806020018281038252601f8152602001807f436f6e74726163746f722063616e6e6f742063616c6c2050617920746f6c6c0081525060200191505060405180910390fd5b600460009054906101000a900473ffffffffffffffffffffffffffffffffffffffff1673ffffffffffffffffffffffffffffffffffffffff168273ffffffffffffffffffffffffffffffffffffffff16141515156124d7576040517f08c379a000000000000000000000000000000000000000000000000000000000815260040180806020018281038252601b8152602001807f436f6e74726163746f722063616e6e6f742070617920746f6c6c21000000000081525060200191505060405180910390fd5b600154600760008473ffffffffffffffffffffffffffffffffffffffff1673ffffffffffffffffffffffffffffffffffffffff16815260200190815260200160002060010154101515156125b9576040517f08c379a000000000000000000000000000000000000000000000000000000000815260040180806020018281038252602a8152602001807f496e73756666696369656e742062616c616e6365206f7220756e72656769737481526020017f657265642075736572210000000000000000000000000000000000000000000081525060400191505060405180910390fd5b42612610603c600760008673ffffffffffffffffffffffffffffffffffffffff1673ffffffffffffffffffffffffffffffffffffffff1681526020019081526020016000206002015461338a90919063ffffffff16565b111515156126ac576040517f08c379a00000000000000000000000000000000000000000000000000000000081526004018080602001828103825260288152602001807f506c6561736520776169742031206d696e7574652c20616c726561647920706181526020017f696420746f6c6c2100000000000000000000000000000000000000000000000081525060400191505060405180910390fd5b6126b830600154612935565b50600360008373ffffffffffffffffffffffffffffffffffffffff1673ffffffffffffffffffffffffffffffffffffffff16815260200190815260200160002054600760008473ffffffffffffffffffffffffffffffffffffffff1673ffffffffffffffffffffffffffffffffffffffff16815260200190815260200160002060010181905550600064174876e8008342604051602001808373ffffffffffffffffffffffffffffffffffffffff1673ffffffffffffffffffffffffffffffffffffffff166c010000000000000000000000000281526014018281526020019250505060405160208183030381529060405280519060200120600190048115156127be57fe5b069050600681908060018154018082558091505090600182039060005260206000200160009091929091909150555042600760008573ffffffffffffffffffffffffffffffffffffffff1673ffffffffffffffffffffffffffffffffffffffff168152602001908152602001600020600201819055506001915050919050565b6000600960009054906101000a900460ff16905090565b600960009054906101000a900460ff1681565b6000600360008373ffffffffffffffffffffffffffffffffffffffff1673ffffffffffffffffffffffffffffffffffffffff168152602001908152602001600020549050919050565b600460009054906101000a900473ffffffffffffffffffffffffffffffffffffffff1681565b6000809054906101000a900473ffffffffffffffffffffffffffffffffffffffff1681565b6040805190810160405280600381526020017f534d43000000000000000000000000000000000000000000000000000000000081525081565b60008073ffffffffffffffffffffffffffffffffffffffff168373ffffffffffffffffffffffffffffffffffffffff1614151515612a01576040517f08c379a00000000000000000000000000000000000000000000000000000000081526004018080602001828103825260268152602001807f496e76616c696420416464726573732c2063616e6e6f742063616c6c2054726181526020017f6e7366657221000000000000000000000000000000000000000000000000000081525060400191505060405180910390fd5b3073ffffffffffffffffffffffffffffffffffffffff168373ffffffffffffffffffffffffffffffffffffffff161415612bc957612a8782600360003373ffffffffffffffffffffffffffffffffffffffff1673ffffffffffffffffffffffffffffffffffffffff168152602001908152602001600020546134fe90919063ffffffff16565b600360003373ffffffffffffffffffffffffffffffffffffffff1673ffffffffffffffffffffffffffffffffffffffff16815260200190815260200160002081905550612b1c82600360003073ffffffffffffffffffffffffffffffffffffffff1673ffffffffffffffffffffffffffffffffffffffff1681526020019081526020016000205461338a90919063ffffffff16565b600360003073ffffffffffffffffffffffffffffffffffffffff1673ffffffffffffffffffffffffffffffffffffffff168152602001908152602001600020819055508273ffffffffffffffffffffffffffffffffffffffff163073ffffffffffffffffffffffffffffffffffffffff167fddf252ad1be2c89b69c2b068fc378daa952ba7f163c4a11628f55a4df523b3ef846040518082815260200191505060405180910390a3613078565b3373ffffffffffffffffffffffffffffffffffffffff16600460009054906101000a900473ffffffffffffffffffffffffffffffffffffffff1673ffffffffffffffffffffffffffffffffffffffff161415612db357612c7182600360003073ffffffffffffffffffffffffffffffffffffffff1673ffffffffffffffffffffffffffffffffffffffff168152602001908152602001600020546134fe90919063ffffffff16565b600360003073ffffffffffffffffffffffffffffffffffffffff1673ffffffffffffffffffffffffffffffffffffffff16815260200190815260200160002081905550612d0682600360008673ffffffffffffffffffffffffffffffffffffffff1673ffffffffffffffffffffffffffffffffffffffff1681526020019081526020016000205461338a90919063ffffffff16565b600360008573ffffffffffffffffffffffffffffffffffffffff1673ffffffffffffffffffffffffffffffffffffffff168152602001908152602001600020819055508273ffffffffffffffffffffffffffffffffffffffff163073ffffffffffffffffffffffffffffffffffffffff167fddf252ad1be2c89b69c2b068fc378daa952ba7f163c4a11628f55a4df523b3ef846040518082815260200191505060405180910390a3613077565b8273ffffffffffffffffffffffffffffffffffffffff163373ffffffffffffffffffffffffffffffffffffffff16141515612e7c576040517f08c379a000000000000000000000000000000000000000000000000000000000815260040180806020018281038252602d8152602001807f557365722063616e20707572636861736520746f6b656e73206f6e6c7920666f81526020017f72207468656d73656c766573210000000000000000000000000000000000000081525060400191505060405180910390fd5b612eef82600360008060009054906101000a900473ffffffffffffffffffffffffffffffffffffffff1673ffffffffffffffffffffffffffffffffffffffff1673ffffffffffffffffffffffffffffffffffffffff168152602001908152602001600020546134fe90919063ffffffff16565b600360008060009054906101000a900473ffffffffffffffffffffffffffffffffffffffff1673ffffffffffffffffffffffffffffffffffffffff1673ffffffffffffffffffffffffffffffffffffffff16815260200190815260200160002081905550612fa582600360008673ffffffffffffffffffffffffffffffffffffffff1673ffffffffffffffffffffffffffffffffffffffff1681526020019081526020016000205461338a90919063ffffffff16565b600360008573ffffffffffffffffffffffffffffffffffffffff1673ffffffffffffffffffffffffffffffffffffffff168152602001908152602001600020819055508273ffffffffffffffffffffffffffffffffffffffff166000809054906101000a900473ffffffffffffffffffffffffffffffffffffffff1673ffffffffffffffffffffffffffffffffffffffff167fddf252ad1be2c89b69c2b068fc378daa952ba7f163c4a11628f55a4df523b3ef846040518082815260200191505060405180910390a360019050613079565b5b5b92915050565b6000606060008073ffffffffffffffffffffffffffffffffffffffff168473ffffffffffffffffffffffffffffffffffffffff1614151515613129576040517f08c379a00000000000000000000000000000000000000000000000000000000081526004018080602001828103825260108152602001807f496e76616c69642061646472657373210000000000000000000000000000000081525060200191505060405180910390fd5b60011515600760008673ffffffffffffffffffffffffffffffffffffffff1673ffffffffffffffffffffffffffffffffffffffff16815260200190815260200160002060030160009054906101000a900460ff16151514151561321a576040517f08c379a00000000000000000000000000000000000000000000000000000000081526004018080602001828103825260218152602001807f5573657220686173206e6f74206265656e20726567697374657265642079657481526020017f210000000000000000000000000000000000000000000000000000000000000081525060400191505060405180910390fd5b83600760008673ffffffffffffffffffffffffffffffffffffffff1673ffffffffffffffffffffffffffffffffffffffff168152602001908152602001600020600001600760008773ffffffffffffffffffffffffffffffffffffffff1673ffffffffffffffffffffffffffffffffffffffff16815260200190815260200160002060010154818054600181600116156101000203166002900480601f0160208091040260200160405190810160405280929190818152602001828054600181600116156101000203166002900480156133355780601f1061330a57610100808354040283529160200191613335565b820191906000526020600020905b81548152906001019060200180831161331857829003601f168201915b505050505091509250925092509193909250565b60085481565b6000808314156133625760009050613384565b6000828402905082848281151561337557fe5b0414151561337f57fe5b809150505b92915050565b600080828401905083811015151561339e57fe5b8091505092915050565b600073ffffffffffffffffffffffffffffffffffffffff168273ffffffffffffffffffffffffffffffffffffffff16141515156133e457600080fd5b6133f98160055461338a90919063ffffffff16565b60058190555061345181600360008573ffffffffffffffffffffffffffffffffffffffff1673ffffffffffffffffffffffffffffffffffffffff1681526020019081526020016000205461338a90919063ffffffff16565b600360008473ffffffffffffffffffffffffffffffffffffffff1673ffffffffffffffffffffffffffffffffffffffff168152602001908152602001600020819055508173ffffffffffffffffffffffffffffffffffffffff16600073ffffffffffffffffffffffffffffffffffffffff167fddf252ad1be2c89b69c2b068fc378daa952ba7f163c4a11628f55a4df523b3ef836040518082815260200191505060405180910390a35050565b600082821115151561350c57fe5b818303905092915050565b828054600181600116156101000203166002900490600052602060002090601f016020900481019282601f1061355857805160ff1916838001178555613586565b82800160010185558215613586579182015b8281111561358557825182559160200191906001019061356a565b5b5090506135939190613597565b5090565b6135b991905b808211156135b557600081600090555060010161359d565b5090565b9056fea165627a7a723058205a9d6b2c113cb4abc37a23940bf9c1fb8d5590173202c002b7921654c623197a0029",
  "source": "pragma solidity ^0.5.0;\n\nimport \"./Erc20Token.sol\";\n\n/**\n* @title Buy\n* @dev Contract defining functions.\n*/\n\ncontract Buy is Token {\n\n    struct users {\n        string vehicleNum;\n        uint256 userBalance;\n        uint256 tollReset;\n        bool userExists;\n    }\n    \n    uint256[] tollReceipts; //array to store all the Toll Receipts\n    mapping (address => users) public UserReg; //mapping to store all registered Users\n    uint public withdrawAllowance = 80; //setting withdrawal limit to 80\n    bool public contractorExists = false; //flag to check if a contractor hsa been registered already\n\n    /**\n    * @dev Public function to register Contractor, restricted access using modifier\n    * @param _contractor  pass the address of contractor to be registered\n    * @return A bool value to show function execution status\n    */\n    function registerContractor (address _contractor) public onlyOwner returns (bool) {\n        require(owner != _contractor, \"Owner cannot register as Contractor!\");\n        require(contractorExists == false, \"Contractor already registered!\");\n        contractorGlobal = _contractor;\n        contractorExists = true;\n        return true;  \n    }\n    \n    /**\n    * @dev Public function to register new User, restricted access using modifier\n    * @param _user pass the address of user to be registered\n    * @param _vehicleNum pass the vehicle number to be registered\n    * @return A bool value to show function execution status\n    */\n    function registerUser (address _user, string memory _vehicleNum) public onlyOwner returns (bool) {\n        require(_user!= owner, \"Owner cannot be registered as User!\");\n        require(contractorGlobal != address(0), \"Contractor has not been registered yet\");\n        require(_user!= contractorGlobal, \"Contractor cannot be registered as User!\"); \n        require(UserReg[_user].userExists == false, \"User already exists!\");\n        UserReg[_user] = users(_vehicleNum, 0, now.sub(1 minutes), true);\n        return true;\n    }\n\n    /**\n    * @dev Public function to pay tolls\n    * @param _user pass the user address to pay tolls\n    * @return A bool value to show function execution status\n    */\n    function payToll (address _user) public returns (bool){\n        //Contract termination is set as 6 minutes for testing. In live project, deployer will define\n        //this value at the time of deployment\n        require((contractStart.add(6 minutes)) >= now, \"Contract has ended, toll collection is not possible!\");\n        require(contractorGlobal!=address(0), \"Contractor not registered yet!\");\n        require(msg.sender == _user, \"Only users can pay toll!\");\n        require(msg.sender != owner, \"Owner cannot call Pay toll\");\n        require(_user!= owner, \"Owner cannot pay toll!\");\n        require(msg.sender != contractorGlobal, \"Contractor cannot call Pay toll\");\n        require(_user!= contractorGlobal, \"Contractor cannot pay toll!\"); \n        require(UserReg[_user].userBalance >= tollAmount, \"Insufficient balance or unregistered user!\");\n        // below condition is meant to be 24 hours in live project, as user needs to pay toll only once in \n        //24 hours, but put as 1 minute for testing purposes.\n        require((UserReg[_user].tollReset).add(1 minutes) <= (now), \"Please wait 1 minute, already paid toll!\");\n        transfer(address(this), tollAmount);\n        UserReg[_user].userBalance = balances[_user];\n        uint256 _tollReceipt = uint256(keccak256(abi.encodePacked(_user, now))) % 100000000000;\n        tollReceipts.push(_tollReceipt);\n        UserReg[_user].tollReset = now;\n        return true;\n    }\n    \n    /**\n    * @dev Throws if called by any account other than the contractor.\n    */\n    modifier onlyContractor{\n        require(contractorGlobal!=address(0), \"Contractor not registered yet!\");\n        require(msg.sender != owner, \"Owner cannot access this function!\");\n        require(msg.sender == contractorGlobal, \"Only Contractor can access this function!\");\n        _;\n    }\n    \n    /**\n    * @dev Public function to withdraw tokens, access restricted using modifier\n    * @param _value Number of tokens to be withdrawn\n    * @return A bool value to check function execution status\n    */\n    function withdrawToken (uint256 _value ) public onlyContractor returns (bool) {\n        require(_value <= withdrawAllowance || (contractStart.add(6 minutes) <= now), \"Withdrawal limit is 80 tokens!\");\n        require(balances[address(this)] >= _value, \"Contract balance is less than requested amount!\");\n        contractorGlobal = msg.sender;\n        transfer(msg.sender,_value);\n        return true;\n        \n    }\n\n    /**\n    * @dev Public function to view registered user details\n    * @param _user pass user address to view details\n    * @return An address, string, and uint256 representing registered user details\n    */\n    function viewUsers (address _user) public view returns (address, string memory, uint256){\n        require(_user != address(0), \"Invalid address!\");\n        require(UserReg[_user].userExists == true, \"User has not been registered yet!\");\n        return (_user, UserReg[_user].vehicleNum, UserReg[_user].userBalance);\n    }\n\n    /**\n    * @dev Public function to buy tokens */\n    function buyTokens (address _user, uint _tokens) public payable {\n        require(msg.sender != owner, \"Owner cannot call Buy Tokens\");\n        require(_user != owner, \"Owner cannot purchase Tokens!\");\n        require(msg.sender != contractorGlobal, \"Contractor cannot call Buy Tokens\");\n        require(_user!= contractorGlobal, \"Contractor cannot purchase Tokens!\"); \n        require(UserReg[_user].userExists == true, \"User doesn't exist!\");\n        require(_user.balance > (_tokens.mul(0.01 ether)), \"User doesn't have sufficient Ether balance!\");\n        if(balances[owner] <= _tokens) {\n            _mint(owner, _tokens.add(10000));\n        }\n        owner.transfer(_tokens.mul(0.01 ether));\n        transfer(_user, _tokens);\n        UserReg[_user].userBalance = UserReg[_user].userBalance.add(_tokens);\n    }\n    //shows entire toll receipts, only owner or contractor can view this, user cannot call\n    function viewHistory (address _user) public view returns (uint256[] memory){\n        require(_user == owner || _user == contractorGlobal, \"Only Owner or Contractor can view history!\");\n        return tollReceipts;\n    }\n    function existContractor () public view returns (bool) {\n        return contractorExists;\n    }\n    \n}\n\n",
  "sourcePath": "/media/snoop/DATA/BlockChain/CED/Exercises Post CED/feb 28/SmartToll (backup iFrame Dapp tested)/contracts/BuySMC.sol",
  "compiler": {
    "name": "solc",
    "version": "0.5.0+commit.1d4f565a.Emscripten.clang"
  },
  "schemaVersion": "3.0.1",
  "updatedAt": "2019-02-28T02:37:06.604Z",
  "devdoc": {
    "details": "Contract defining functions.",
    "methods": {
      "balanceOf(address)": {
        "details": "Public function that returns the balance of the specified address.",
        "params": {
          "_owner": "The account address of whose balance is being checked."
        },
        "return": "An uint256 representing the amount owned by the passed address."
      },
      "buyTokens(address,uint256)": {
        "details": "Public function to buy tokens "
      },
      "payToll(address)": {
        "details": "Public function to pay tolls",
        "params": {
          "_user": "pass the user address to pay tolls"
        },
        "return": "A bool value to show function execution status"
      },
      "registerContractor(address)": {
        "details": "Public function to register Contractor, restricted access using modifier",
        "params": {
          "_contractor": "pass the address of contractor to be registered"
        },
        "return": "A bool value to show function execution status"
      },
      "registerUser(address,string)": {
        "details": "Public function to register new User, restricted access using modifier",
        "params": {
          "_user": "pass the address of user to be registered",
          "_vehicleNum": "pass the vehicle number to be registered"
        },
        "return": "A bool value to show function execution status"
      },
      "totalSupply()": {
        "details": "Total number of tokens in existence."
      },
      "transfer(address,uint256)": {
        "details": "Public function that transfers tokens to a specified address.",
        "params": {
          "_to": "The address to transfer tokens to.",
          "_value": "The amount to be transferred."
        }
      },
      "viewUsers(address)": {
        "details": "Public function to view registered user details",
        "params": {
          "_user": "pass user address to view details"
        },
        "return": "An address, string, and uint256 representing registered user details"
      },
      "withdrawToken(uint256)": {
        "details": "Public function to withdraw tokens, access restricted using modifier",
        "params": {
          "_value": "Number of tokens to be withdrawn"
        },
        "return": "A bool value to check function execution status"
      }
    },
    "title": "Buy"
  },
  "userdoc": {
    "methods": {}
  }
}