{
  "contractName": "Token",
  "abi": [
    {
      "constant": true,
      "inputs": [],
      "name": "name",
      "outputs": [
        {
          "name": "",
          "type": "string"
        }
      ],
      "payable": false,
      "stateMutability": "view",
      "type": "function"
    },
    {
      "constant": true,
      "inputs": [],
      "name": "totalSupply",
      "outputs": [
        {
          "name": "",
          "type": "uint256"
        }
      ],
      "payable": false,
      "stateMutability": "view",
      "type": "function"
    },
    {
      "constant": true,
      "inputs": [],
      "name": "decimals",
      "outputs": [
        {
          "name": "",
          "type": "uint8"
        }
      ],
      "payable": false,
      "stateMutability": "view",
      "type": "function"
    },
    {
      "constant": true,
      "inputs": [
        {
          "name": "_owner",
          "type": "address"
        }
      ],
      "name": "balanceOf",
      "outputs": [
        {
          "name": "balance",
          "type": "uint256"
        }
      ],
      "payable": false,
      "stateMutability": "view",
      "type": "function"
    },
    {
      "constant": true,
      "inputs": [],
      "name": "contractorGlobal",
      "outputs": [
        {
          "name": "",
          "type": "address"
        }
      ],
      "payable": false,
      "stateMutability": "view",
      "type": "function"
    },
    {
      "constant": true,
      "inputs": [],
      "name": "owner",
      "outputs": [
        {
          "name": "",
          "type": "address"
        }
      ],
      "payable": false,
      "stateMutability": "view",
      "type": "function"
    },
    {
      "constant": true,
      "inputs": [],
      "name": "symbol",
      "outputs": [
        {
          "name": "",
          "type": "string"
        }
      ],
      "payable": false,
      "stateMutability": "view",
      "type": "function"
    },
    {
      "constant": false,
      "inputs": [
        {
          "name": "_to",
          "type": "address"
        },
        {
          "name": "_value",
          "type": "uint256"
        }
      ],
      "name": "transfer",
      "outputs": [
        {
          "name": "",
          "type": "bool"
        }
      ],
      "payable": false,
      "stateMutability": "nonpayable",
      "type": "function"
    },
    {
      "inputs": [],
      "payable": true,
      "stateMutability": "payable",
      "type": "constructor"
    },
    {
      "anonymous": false,
      "inputs": [
        {
          "indexed": true,
          "name": "from",
          "type": "address"
        },
        {
          "indexed": true,
          "name": "to",
          "type": "address"
        },
        {
          "indexed": false,
          "name": "value",
          "type": "uint256"
        }
      ],
      "name": "Transfer",
      "type": "event"
    }
  ],
  "bytecode": "0x6080604052336000806101000a81548173ffffffffffffffffffffffffffffffffffffffff021916908373ffffffffffffffffffffffffffffffffffffffff1602179055506032600181905550426002819055506000600360ff16600a0a60320290506100848160055461019864010000000002610c0d179091906401000000009004565b6005819055506100e981600360003373ffffffffffffffffffffffffffffffffffffffff1673ffffffffffffffffffffffffffffffffffffffff1681526020019081526020016000205461019864010000000002610c0d179091906401000000009004565b600360003373ffffffffffffffffffffffffffffffffffffffff1673ffffffffffffffffffffffffffffffffffffffff168152602001908152602001600020819055503373ffffffffffffffffffffffffffffffffffffffff16600073ffffffffffffffffffffffffffffffffffffffff167fddf252ad1be2c89b69c2b068fc378daa952ba7f163c4a11628f55a4df523b3ef836040518082815260200191505060405180910390a3506101b6565b60008082840190508381101515156101ac57fe5b8091505092915050565b610c57806101c56000396000f3fe60806040526004361061008e576000357c0100000000000000000000000000000000000000000000000000000000900463ffffffff16806306fdde031461009357806318160ddd14610123578063313ce5671461014e57806370a082311461017f57806375fb4048146101e45780638da5cb5b1461023b57806395d89b4114610292578063a9059cbb14610322575b600080fd5b34801561009f57600080fd5b506100a8610395565b6040518080602001828103825283818151815260200191508051906020019080838360005b838110156100e85780820151818401526020810190506100cd565b50505050905090810190601f1680156101155780820380516001836020036101000a031916815260200191505b509250505060405180910390f35b34801561012f57600080fd5b506101386103ce565b6040518082815260200191505060405180910390f35b34801561015a57600080fd5b506101636103d8565b604051808260ff1660ff16815260200191505060405180910390f35b34801561018b57600080fd5b506101ce600480360360208110156101a257600080fd5b81019080803573ffffffffffffffffffffffffffffffffffffffff1690602001909291905050506103dd565b6040518082815260200191505060405180910390f35b3480156101f057600080fd5b506101f9610426565b604051808273ffffffffffffffffffffffffffffffffffffffff1673ffffffffffffffffffffffffffffffffffffffff16815260200191505060405180910390f35b34801561024757600080fd5b5061025061044c565b604051808273ffffffffffffffffffffffffffffffffffffffff1673ffffffffffffffffffffffffffffffffffffffff16815260200191505060405180910390f35b34801561029e57600080fd5b506102a7610471565b6040518080602001828103825283818151815260200191508051906020019080838360005b838110156102e75780820151818401526020810190506102cc565b50505050905090810190601f1680156103145780820380516001836020036101000a031916815260200191505b509250505060405180910390f35b34801561032e57600080fd5b5061037b6004803603604081101561034557600080fd5b81019080803573ffffffffffffffffffffffffffffffffffffffff169060200190929190803590602001909291905050506104aa565b604051808215151515815260200191505060405180910390f35b6040805190810160405280600881526020017f546f6c6c436f696e00000000000000000000000000000000000000000000000081525081565b6000600554905090565b600381565b6000600360008373ffffffffffffffffffffffffffffffffffffffff1673ffffffffffffffffffffffffffffffffffffffff168152602001908152602001600020549050919050565b600460009054906101000a900473ffffffffffffffffffffffffffffffffffffffff1681565b6000809054906101000a900473ffffffffffffffffffffffffffffffffffffffff1681565b6040805190810160405280600381526020017f534d43000000000000000000000000000000000000000000000000000000000081525081565b60008073ffffffffffffffffffffffffffffffffffffffff168373ffffffffffffffffffffffffffffffffffffffff1614151515610576576040517f08c379a00000000000000000000000000000000000000000000000000000000081526004018080602001828103825260268152602001807f496e76616c696420416464726573732c2063616e6e6f742063616c6c2054726181526020017f6e7366657221000000000000000000000000000000000000000000000000000081525060400191505060405180910390fd5b3073ffffffffffffffffffffffffffffffffffffffff168373ffffffffffffffffffffffffffffffffffffffff16141561073e576105fc82600360003373ffffffffffffffffffffffffffffffffffffffff1673ffffffffffffffffffffffffffffffffffffffff16815260200190815260200160002054610bf490919063ffffffff16565b600360003373ffffffffffffffffffffffffffffffffffffffff1673ffffffffffffffffffffffffffffffffffffffff1681526020019081526020016000208190555061069182600360003073ffffffffffffffffffffffffffffffffffffffff1673ffffffffffffffffffffffffffffffffffffffff16815260200190815260200160002054610c0d90919063ffffffff16565b600360003073ffffffffffffffffffffffffffffffffffffffff1673ffffffffffffffffffffffffffffffffffffffff168152602001908152602001600020819055508273ffffffffffffffffffffffffffffffffffffffff163073ffffffffffffffffffffffffffffffffffffffff167fddf252ad1be2c89b69c2b068fc378daa952ba7f163c4a11628f55a4df523b3ef846040518082815260200191505060405180910390a3610bed565b3373ffffffffffffffffffffffffffffffffffffffff16600460009054906101000a900473ffffffffffffffffffffffffffffffffffffffff1673ffffffffffffffffffffffffffffffffffffffff161415610928576107e682600360003073ffffffffffffffffffffffffffffffffffffffff1673ffffffffffffffffffffffffffffffffffffffff16815260200190815260200160002054610bf490919063ffffffff16565b600360003073ffffffffffffffffffffffffffffffffffffffff1673ffffffffffffffffffffffffffffffffffffffff1681526020019081526020016000208190555061087b82600360008673ffffffffffffffffffffffffffffffffffffffff1673ffffffffffffffffffffffffffffffffffffffff16815260200190815260200160002054610c0d90919063ffffffff16565b600360008573ffffffffffffffffffffffffffffffffffffffff1673ffffffffffffffffffffffffffffffffffffffff168152602001908152602001600020819055508273ffffffffffffffffffffffffffffffffffffffff163073ffffffffffffffffffffffffffffffffffffffff167fddf252ad1be2c89b69c2b068fc378daa952ba7f163c4a11628f55a4df523b3ef846040518082815260200191505060405180910390a3610bec565b8273ffffffffffffffffffffffffffffffffffffffff163373ffffffffffffffffffffffffffffffffffffffff161415156109f1576040517f08c379a000000000000000000000000000000000000000000000000000000000815260040180806020018281038252602d8152602001807f557365722063616e20707572636861736520746f6b656e73206f6e6c7920666f81526020017f72207468656d73656c766573210000000000000000000000000000000000000081525060400191505060405180910390fd5b610a6482600360008060009054906101000a900473ffffffffffffffffffffffffffffffffffffffff1673ffffffffffffffffffffffffffffffffffffffff1673ffffffffffffffffffffffffffffffffffffffff16815260200190815260200160002054610bf490919063ffffffff16565b600360008060009054906101000a900473ffffffffffffffffffffffffffffffffffffffff1673ffffffffffffffffffffffffffffffffffffffff1673ffffffffffffffffffffffffffffffffffffffff16815260200190815260200160002081905550610b1a82600360008673ffffffffffffffffffffffffffffffffffffffff1673ffffffffffffffffffffffffffffffffffffffff16815260200190815260200160002054610c0d90919063ffffffff16565b600360008573ffffffffffffffffffffffffffffffffffffffff1673ffffffffffffffffffffffffffffffffffffffff168152602001908152602001600020819055508273ffffffffffffffffffffffffffffffffffffffff166000809054906101000a900473ffffffffffffffffffffffffffffffffffffffff1673ffffffffffffffffffffffffffffffffffffffff167fddf252ad1be2c89b69c2b068fc378daa952ba7f163c4a11628f55a4df523b3ef846040518082815260200191505060405180910390a360019050610bee565b5b5b92915050565b6000828211151515610c0257fe5b818303905092915050565b6000808284019050838110151515610c2157fe5b809150509291505056fea165627a7a723058206235b14bb8eb8ca82d5acff9f21ca8920d33b4a020d81aeb7bf68debbdb0895c0029",
  "source": "pragma solidity ^0.5.0;\n\nimport \"./Ownable.sol\";\n\n/**\n * @title SafeMath\n * @dev Math operations with safety checks that throw on error\n */\nlibrary SafeMath {\n  function mul(uint256 a, uint256 b) internal pure returns (uint256) {\n    if (a == 0) {\n      return 0;\n    }\n    uint256 c = a * b;\n    assert(c / a == b);\n    return c;\n  }\n\n  function div(uint256 a, uint256 b) internal pure returns (uint256) {\n    // assert(b > 0); // Solidity automatically throws when dividing by 0\n    uint256 c = a / b;\n    // assert(a == b * c + a % b); // There is no case in which this doesn't hold\n    return c;\n  }\n\n  function sub(uint256 a, uint256 b) internal pure returns (uint256) {\n    assert(b <= a);\n    return a - b;\n  }\n\n  function add(uint256 a, uint256 b) internal pure returns (uint256) {\n    uint256 c = a + b;\n    assert(c >= a);\n    return c;\n  }\n}\n\n/**\n* @title ERC20Interface\n* @dev Contract Interface defining ERC20 protocols.\n*/\n\ncontract ERC20Interface {\n  function totalSupply() public view returns (uint256);\n  function balanceOf(address _who) public view returns (uint256);\n  function transfer(address _to, uint256 _value) public returns (bool);\n  event Transfer(\n    address indexed from,\n    address indexed to,\n    uint256 value\n  );\n}\n\n/**\n* @title ERC20\n* @dev Contract defining functions of the ERC20 token.\n*/\n\ncontract ERC20 is Ownable, ERC20Interface {\n    \n  using SafeMath for uint256;\n  mapping(address => uint256) balances;\n  address public contractorGlobal;\n  uint256 totalSupply_;\n  \n  /**\n  * @dev Total number of tokens in existence.\n  */\n  function totalSupply() public view returns (uint256) {\n    return totalSupply_;\n  }\n  \n  /**\n  * @dev Public function that transfers tokens to a specified address.\n  * @param _to The address to transfer tokens to.\n  * @param _value The amount to be transferred.\n  */\n  function transfer(address _to, uint256 _value) public returns (bool) {\n    //Checking if the to address is a valid address.\n    require(_to != address(0), \"Invalid Address, cannot call Transfer!\");\n    //Condition for transferring to Contract Address (paying toll, called by user).\n    if(_to == address(this)) {\n      balances[msg.sender] = balances[msg.sender].sub(_value);\n      balances[address(this)] = balances[address(this)].add(_value);\n      emit Transfer(address(this), _to, _value);\n    }\n    //Condition for withdrawing Tokens (called by Contractor).\n    else if (contractorGlobal == msg.sender) {\n      balances[address(this)] = balances[address(this)].sub(_value);\n      balances[_to] = balances[_to].add(_value);\n      emit Transfer(address(this), _to, _value);\n    }\n    //Condition for sending tokens to user when registering (called by owner).\n    // else if (msg.sender == owner) {\n    //   balances[msg.sender] = balances[msg.sender].sub(_value);\n    //   balances[_to] = balances[_to].add(_value);\n    //   emit Transfer(msg.sender, _to, _value);\n    //   return true;\n    // }\n    //Condition for user buying tokens if low balance (called by user).\n    else {\n      require(msg.sender == _to, \"User can purchase tokens only for themselves!\");\n      balances[owner] = balances[owner].sub(_value);\n      balances[_to] = balances[_to].add(_value);\n      emit Transfer(owner, _to, _value);\n      return true;\n    }\n  }\n  \n  /**\n  * @dev Public function that returns the balance of the specified address.\n  * @param _owner The account address of whose balance is being checked.\n  * @return An uint256 representing the amount owned by the passed address.\n  */\n  function balanceOf(address _owner) public view returns (uint256 balance) {\n    return balances[_owner];\n  }\n  /**\n   * @dev Internal function that mints an amount of the token and assigns it to\n   * an owner. This encapsulates the modification of balances such that the\n   * proper events are emitted.\n   * @param _owner The account that will receive the created tokens (owner).\n   * @param _amount The amount that will be created.\n   */\n  function _mint(address _owner, uint256 _amount) internal {\n    require(_owner != address(0));\n    totalSupply_ = totalSupply_.add(_amount);\n    balances[_owner] = balances[_owner].add(_amount);\n    emit Transfer(address(0), _owner, _amount);\n  }\n\n}\n\n/**\n* @title Token\n* @dev Contract defining the token name, symbol, initial supply of tokens.\n*/\ncontract Token is ERC20 {\n\n  string public constant name = 'TollCoin';\n  string public constant symbol = 'SMC';\n  uint8 public constant decimals = 3;\n\n  /**\n   * @dev The Token constructor sets the Token parameters.\n   */\n  constructor() public payable { \n    uint premintAmount = 50*10**uint(decimals);\n    totalSupply_ = totalSupply_.add(premintAmount);\n    balances[msg.sender] = balances[msg.sender].add(premintAmount);\n    emit  Transfer(address(0), msg.sender, premintAmount);\n  }\n}\n\n\n",
  "sourcePath": "/media/snoop/DATA/BlockChain/CED/Exercises Post CED/feb 28/SmartToll (backup iFrame Dapp tested)/contracts/Erc20Token.sol",
  "compiler": {
    "name": "solc",
    "version": "0.5.0+commit.1d4f565a.Emscripten.clang"
  },
  "schemaVersion": "3.0.1",
  "updatedAt": "2019-02-28T02:34:35.332Z",
  "devdoc": {
    "details": "Contract defining the token name, symbol, initial supply of tokens.",
    "methods": {
      "balanceOf(address)": {
        "details": "Public function that returns the balance of the specified address.",
        "params": {
          "_owner": "The account address of whose balance is being checked."
        },
        "return": "An uint256 representing the amount owned by the passed address."
      },
      "constructor": {
        "details": "The Token constructor sets the Token parameters."
      },
      "totalSupply()": {
        "details": "Total number of tokens in existence."
      },
      "transfer(address,uint256)": {
        "details": "Public function that transfers tokens to a specified address.",
        "params": {
          "_to": "The address to transfer tokens to.",
          "_value": "The amount to be transferred."
        }
      }
    },
    "title": "Token"
  },
  "userdoc": {
    "methods": {}
  }
}